{
  "_format": "hh-sol-artifact-1",
  "contractName": "AuthorizationUtils",
  "sourceName": "@api3/airnode-protocol/contracts/rrp/AuthorizationUtils.sol",
  "abi": [
    {
      "inputs": [
        {
          "internalType": "address[]",
          "name": "authorizers",
          "type": "address[]"
        },
        {
          "internalType": "address",
          "name": "airnode",
          "type": "address"
        },
        {
          "internalType": "bytes32",
          "name": "requestId",
          "type": "bytes32"
        },
        {
          "internalType": "bytes32",
          "name": "endpointId",
          "type": "bytes32"
        },
        {
          "internalType": "address",
          "name": "sponsor",
          "type": "address"
        },
        {
          "internalType": "address",
          "name": "requester",
          "type": "address"
        }
      ],
      "name": "checkAuthorizationStatus",
      "outputs": [
        {
          "internalType": "bool",
          "name": "status",
          "type": "bool"
        }
      ],
      "stateMutability": "view",
      "type": "function"
    },
    {
      "inputs": [
        {
          "internalType": "address[]",
          "name": "authorizers",
          "type": "address[]"
        },
        {
          "internalType": "address",
          "name": "airnode",
          "type": "address"
        },
        {
          "internalType": "bytes32[]",
          "name": "requestIds",
          "type": "bytes32[]"
        },
        {
          "internalType": "bytes32[]",
          "name": "endpointIds",
          "type": "bytes32[]"
        },
        {
          "internalType": "address[]",
          "name": "sponsors",
          "type": "address[]"
        },
        {
          "internalType": "address[]",
          "name": "requesters",
          "type": "address[]"
        }
      ],
      "name": "checkAuthorizationStatuses",
      "outputs": [
        {
          "internalType": "bool[]",
          "name": "statuses",
          "type": "bool[]"
        }
      ],
      "stateMutability": "view",
      "type": "function"
    }
  ],
  "bytecode": "0x608060405234801561001057600080fd5b50610a18806100206000396000f3fe608060405234801561001057600080fd5b50600436106100365760003560e01c80638a33be011461003b578063ca31d5861461006b575b600080fd5b61005560048036038101906100509190610442565b61009b565b604051610062919061050c565b60405180910390f35b6100856004803603810190610080919061057d565b6101a0565b604051610092919061076c565b60405180910390f35b600080600090505b8888905081101561018f5760008989838181106100c3576100c261078e565b5b90506020020160208101906100d891906107bd565b90508073ffffffffffffffffffffffffffffffffffffffff16635d51dbdc888a8989896040518663ffffffff1660e01b815260040161011b959493929190610808565b60206040518083038186803b15801561013357600080fd5b505afa158015610147573d6000803e3d6000fd5b505050506040513d601f19601f8201168201806040525081019061016b9190610887565b1561017b57600192505050610195565b508080610187906108ed565b9150506100a3565b50600090505b979650505050505050565b606086869050898990501480156101bc57508484905089899050145b80156101cd57508282905089899050145b61020c576040517f08c379a000000000000000000000000000000000000000000000000000000000815260040161020390610993565b60405180910390fd5b8888905067ffffffffffffffff811115610229576102286109b3565b5b6040519080825280602002602001820160405280156102575781602001602082028036833780820191505090505b50905060005b8989905081101561032f576102f78d8d8d8d8d868181106102815761028061078e565b5b905060200201358c8c8781811061029b5761029a61078e565b5b905060200201358b8b888181106102b5576102b461078e565b5b90506020020160208101906102ca91906107bd565b8a8a898181106102dd576102dc61078e565b5b90506020020160208101906102f291906107bd565b61009b565b82828151811061030a5761030961078e565b5b6020026020010190151590811515815250508080610327906108ed565b91505061025d565b509b9a5050505050505050505050565b600080fd5b600080fd5b600080fd5b600080fd5b600080fd5b60008083601f84011261036e5761036d610349565b5b8235905067ffffffffffffffff81111561038b5761038a61034e565b5b6020830191508360208202830111156103a7576103a6610353565b5b9250929050565b600073ffffffffffffffffffffffffffffffffffffffff82169050919050565b60006103d9826103ae565b9050919050565b6103e9816103ce565b81146103f457600080fd5b50565b600081359050610406816103e0565b92915050565b6000819050919050565b61041f8161040c565b811461042a57600080fd5b50565b60008135905061043c81610416565b92915050565b600080600080600080600060c0888a0312156104615761046061033f565b5b600088013567ffffffffffffffff81111561047f5761047e610344565b5b61048b8a828b01610358565b9750975050602061049e8a828b016103f7565b95505060406104af8a828b0161042d565b94505060606104c08a828b0161042d565b93505060806104d18a828b016103f7565b92505060a06104e28a828b016103f7565b91505092959891949750929550565b60008115159050919050565b610506816104f1565b82525050565b600060208201905061052160008301846104fd565b92915050565b60008083601f84011261053d5761053c610349565b5b8235905067ffffffffffffffff81111561055a5761055961034e565b5b60208301915083602082028301111561057657610575610353565b5b9250929050565b600080600080600080600080600080600060c08c8e0312156105a2576105a161033f565b5b60008c013567ffffffffffffffff8111156105c0576105bf610344565b5b6105cc8e828f01610358565b9b509b505060206105df8e828f016103f7565b99505060408c013567ffffffffffffffff811115610600576105ff610344565b5b61060c8e828f01610527565b985098505060608c013567ffffffffffffffff81111561062f5761062e610344565b5b61063b8e828f01610527565b965096505060808c013567ffffffffffffffff81111561065e5761065d610344565b5b61066a8e828f01610358565b945094505060a08c013567ffffffffffffffff81111561068d5761068c610344565b5b6106998e828f01610358565b92509250509295989b509295989b9093969950565b600081519050919050565b600082825260208201905092915050565b6000819050602082019050919050565b6106e3816104f1565b82525050565b60006106f583836106da565b60208301905092915050565b6000602082019050919050565b6000610719826106ae565b61072381856106b9565b935061072e836106ca565b8060005b8381101561075f57815161074688826106e9565b975061075183610701565b925050600181019050610732565b5085935050505092915050565b60006020820190508181036000830152610786818461070e565b905092915050565b7f4e487b7100000000000000000000000000000000000000000000000000000000600052603260045260246000fd5b6000602082840312156107d3576107d261033f565b5b60006107e1848285016103f7565b91505092915050565b6107f38161040c565b82525050565b610802816103ce565b82525050565b600060a08201905061081d60008301886107ea565b61082a60208301876107f9565b61083760408301866107ea565b61084460608301856107f9565b61085160808301846107f9565b9695505050505050565b610864816104f1565b811461086f57600080fd5b50565b6000815190506108818161085b565b92915050565b60006020828403121561089d5761089c61033f565b5b60006108ab84828501610872565b91505092915050565b7f4e487b7100000000000000000000000000000000000000000000000000000000600052601160045260246000fd5b6000819050919050565b60006108f8826108e3565b91507fffffffffffffffffffffffffffffffffffffffffffffffffffffffffffffffff82141561092b5761092a6108b4565b5b600182019050919050565b600082825260208201905092915050565b7f556e657175616c20706172616d65746572206c656e6774687300000000000000600082015250565b600061097d601983610936565b915061098882610947565b602082019050919050565b600060208201905081810360008301526109ac81610970565b9050919050565b7f4e487b7100000000000000000000000000000000000000000000000000000000600052604160045260246000fdfea264697066735822122035a0f25d22233ccd19b921658fc40f3d39bcb769118b693e4372a3af4799751164736f6c63430008090033",
  "linkReferences": {},
  "deployedLinkReferences": {}
}