{
  "_format": "hh-sol-artifact-1",
  "contractName": "WithdrawalUtils",
  "sourceName": "@api3/airnode-protocol/contracts/rrp/WithdrawalUtils.sol",
  "abi": [
    {
      "anonymous": false,
      "inputs": [
        {
          "indexed": true,
          "internalType": "address",
          "name": "airnode",
          "type": "address"
        },
        {
          "indexed": true,
          "internalType": "address",
          "name": "sponsor",
          "type": "address"
        },
        {
          "indexed": true,
          "internalType": "bytes32",
          "name": "withdrawalRequestId",
          "type": "bytes32"
        },
        {
          "indexed": false,
          "internalType": "address",
          "name": "sponsorWallet",
          "type": "address"
        },
        {
          "indexed": false,
          "internalType": "uint256",
          "name": "amount",
          "type": "uint256"
        }
      ],
      "name": "FulfilledWithdrawal",
      "type": "event"
    },
    {
      "anonymous": false,
      "inputs": [
        {
          "indexed": true,
          "internalType": "address",
          "name": "airnode",
          "type": "address"
        },
        {
          "indexed": true,
          "internalType": "address",
          "name": "sponsor",
          "type": "address"
        },
        {
          "indexed": true,
          "internalType": "bytes32",
          "name": "withdrawalRequestId",
          "type": "bytes32"
        },
        {
          "indexed": false,
          "internalType": "address",
          "name": "sponsorWallet",
          "type": "address"
        }
      ],
      "name": "RequestedWithdrawal",
      "type": "event"
    },
    {
      "inputs": [
        {
          "internalType": "bytes32",
          "name": "withdrawalRequestId",
          "type": "bytes32"
        },
        {
          "internalType": "address",
          "name": "airnode",
          "type": "address"
        },
        {
          "internalType": "address",
          "name": "sponsor",
          "type": "address"
        }
      ],
      "name": "fulfillWithdrawal",
      "outputs": [],
      "stateMutability": "payable",
      "type": "function"
    },
    {
      "inputs": [
        {
          "internalType": "address",
          "name": "airnode",
          "type": "address"
        },
        {
          "internalType": "address",
          "name": "sponsorWallet",
          "type": "address"
        }
      ],
      "name": "requestWithdrawal",
      "outputs": [],
      "stateMutability": "nonpayable",
      "type": "function"
    },
    {
      "inputs": [
        {
          "internalType": "address",
          "name": "",
          "type": "address"
        }
      ],
      "name": "sponsorToWithdrawalRequestCount",
      "outputs": [
        {
          "internalType": "uint256",
          "name": "",
          "type": "uint256"
        }
      ],
      "stateMutability": "view",
      "type": "function"
    }
  ],
  "bytecode": "0x608060405234801561001057600080fd5b50610862806100206000396000f3fe6080604052600436106100345760003560e01c80631d414cbd146100395780633c7fe5e314610062578063f8fa73a11461007e575b600080fd5b34801561004557600080fd5b50610060600480360381019061005b9190610414565b6100bb565b005b61007c6004803603810190610077919061048a565b6101e9565b005b34801561008a57600080fd5b506100a560048036038101906100a091906104dd565b610399565b6040516100b29190610523565b60405180910390f35b60004630336000803373ffffffffffffffffffffffffffffffffffffffff1673ffffffffffffffffffffffffffffffffffffffff1681526020019081526020016000206000815461010b9061056d565b919050819055604051602001610124949392919061061f565b6040516020818303038152906040528051906020012090508233836040516020016101519392919061066d565b604051602081830303815290604052805190602001206001600083815260200190815260200160002081905550803373ffffffffffffffffffffffffffffffffffffffff168473ffffffffffffffffffffffffffffffffffffffff167fd48d52c7c6d0c940f3f8d07591e1800ef3a70daf79929a97ccd80b4494769fc7856040516101dc91906106b9565b60405180910390a4505050565b8181336040516020016101fe9392919061066d565b60405160208183030381529060405280519060200120600160008581526020019081526020016000205414610268576040517f08c379a000000000000000000000000000000000000000000000000000000000815260040161025f90610731565b60405180910390fd5b6001600084815260200190815260200160002060009055828173ffffffffffffffffffffffffffffffffffffffff168373ffffffffffffffffffffffffffffffffffffffff167fadb4840bbd5f924665ae7e0e0c83de5c0fb40a98c9b57dba53a6c978127a622e33346040516102df929190610751565b60405180910390a460008173ffffffffffffffffffffffffffffffffffffffff163460405161030d906107ab565b60006040518083038185875af1925050503d806000811461034a576040519150601f19603f3d011682016040523d82523d6000602084013e61034f565b606091505b5050905080610393576040517f08c379a000000000000000000000000000000000000000000000000000000000815260040161038a9061080c565b60405180910390fd5b50505050565b60006020528060005260406000206000915090505481565b600080fd5b600073ffffffffffffffffffffffffffffffffffffffff82169050919050565b60006103e1826103b6565b9050919050565b6103f1816103d6565b81146103fc57600080fd5b50565b60008135905061040e816103e8565b92915050565b6000806040838503121561042b5761042a6103b1565b5b6000610439858286016103ff565b925050602061044a858286016103ff565b9150509250929050565b6000819050919050565b61046781610454565b811461047257600080fd5b50565b6000813590506104848161045e565b92915050565b6000806000606084860312156104a3576104a26103b1565b5b60006104b186828701610475565b93505060206104c2868287016103ff565b92505060406104d3868287016103ff565b9150509250925092565b6000602082840312156104f3576104f26103b1565b5b6000610501848285016103ff565b91505092915050565b6000819050919050565b61051d8161050a565b82525050565b60006020820190506105386000830184610514565b92915050565b7f4e487b7100000000000000000000000000000000000000000000000000000000600052601160045260246000fd5b60006105788261050a565b91507fffffffffffffffffffffffffffffffffffffffffffffffffffffffffffffffff8214156105ab576105aa61053e565b5b600182019050919050565b6000819050919050565b6105d16105cc8261050a565b6105b6565b82525050565b60008160601b9050919050565b60006105ef826105d7565b9050919050565b6000610601826105e4565b9050919050565b610619610614826103d6565b6105f6565b82525050565b600061062b82876105c0565b60208201915061063b8286610608565b60148201915061064b8285610608565b60148201915061065b82846105c0565b60208201915081905095945050505050565b60006106798286610608565b6014820191506106898285610608565b6014820191506106998284610608565b601482019150819050949350505050565b6106b3816103d6565b82525050565b60006020820190506106ce60008301846106aa565b92915050565b600082825260208201905092915050565b7f496e76616c6964207769746864726177616c2066756c66696c6c6d656e740000600082015250565b600061071b601e836106d4565b9150610726826106e5565b602082019050919050565b6000602082019050818103600083015261074a8161070e565b9050919050565b600060408201905061076660008301856106aa565b6107736020830184610514565b9392505050565b600081905092915050565b50565b600061079560008361077a565b91506107a082610785565b600082019050919050565b60006107b682610788565b9150819050919050565b7f5472616e73666572206661696c65640000000000000000000000000000000000600082015250565b60006107f6600f836106d4565b9150610801826107c0565b602082019050919050565b60006020820190508181036000830152610825816107e9565b905091905056fea26469706673582212205ea64a5e87f26155ea1448cf46d859948a78183fe2eb7a2db128f899c9350a7864736f6c63430008090033",
  "linkReferences": {},
  "deployedLinkReferences": {}
}