{
  "_format": "hh-sol-artifact-1",
  "contractName": "Requester",
  "sourceName": "contracts/Requester.sol",
  "abi": [
    {
      "inputs": [
        {
          "internalType": "address",
          "name": "airnodeAddress",
          "type": "address"
        }
      ],
      "stateMutability": "payable",
      "type": "constructor"
    },
    {
      "inputs": [],
      "name": "airnodeRrp",
      "outputs": [
        {
          "internalType": "contract IAirnodeRrp",
          "name": "",
          "type": "address"
        }
      ],
      "stateMutability": "view",
      "type": "function"
    },
    {
      "inputs": [],
      "name": "airnodeWalletAddress",
      "outputs": [
        {
          "internalType": "address",
          "name": "",
          "type": "address"
        }
      ],
      "stateMutability": "view",
      "type": "function"
    },
    {
      "inputs": [
        {
          "internalType": "address",
          "name": "",
          "type": "address"
        }
      ],
      "name": "bets",
      "outputs": [
        {
          "internalType": "uint256",
          "name": "amount",
          "type": "uint256"
        },
        {
          "internalType": "bool",
          "name": "above",
          "type": "bool"
        },
        {
          "internalType": "address",
          "name": "player",
          "type": "address"
        },
        {
          "internalType": "uint256",
          "name": "startTime",
          "type": "uint256"
        },
        {
          "internalType": "int256",
          "name": "yesterdaysCases",
          "type": "int256"
        },
        {
          "internalType": "bool",
          "name": "open",
          "type": "bool"
        }
      ],
      "stateMutability": "view",
      "type": "function"
    },
    {
      "inputs": [],
      "name": "callBet",
      "outputs": [],
      "stateMutability": "nonpayable",
      "type": "function"
    },
    {
      "inputs": [
        {
          "internalType": "bytes32",
          "name": "requestId",
          "type": "bytes32"
        },
        {
          "internalType": "bytes",
          "name": "data",
          "type": "bytes"
        }
      ],
      "name": "closeBet",
      "outputs": [],
      "stateMutability": "nonpayable",
      "type": "function"
    },
    {
      "inputs": [],
      "name": "dailyCasesSQL",
      "outputs": [
        {
          "internalType": "string",
          "name": "",
          "type": "string"
        }
      ],
      "stateMutability": "view",
      "type": "function"
    },
    {
      "inputs": [],
      "name": "endpointId",
      "outputs": [
        {
          "internalType": "bytes32",
          "name": "",
          "type": "bytes32"
        }
      ],
      "stateMutability": "view",
      "type": "function"
    },
    {
      "inputs": [
        {
          "internalType": "bytes32",
          "name": "requestId",
          "type": "bytes32"
        },
        {
          "internalType": "bytes",
          "name": "data",
          "type": "bytes"
        }
      ],
      "name": "fulfillYesterdaysCases",
      "outputs": [],
      "stateMutability": "nonpayable",
      "type": "function"
    },
    {
      "inputs": [
        {
          "internalType": "bytes32",
          "name": "",
          "type": "bytes32"
        }
      ],
      "name": "incomingFulfillments",
      "outputs": [
        {
          "internalType": "bool",
          "name": "",
          "type": "bool"
        }
      ],
      "stateMutability": "view",
      "type": "function"
    },
    {
      "inputs": [
        {
          "internalType": "bool",
          "name": "_above",
          "type": "bool"
        }
      ],
      "name": "makeBet",
      "outputs": [],
      "stateMutability": "payable",
      "type": "function"
    },
    {
      "inputs": [],
      "name": "parameters",
      "outputs": [
        {
          "internalType": "bytes",
          "name": "",
          "type": "bytes"
        }
      ],
      "stateMutability": "view",
      "type": "function"
    },
    {
      "inputs": [
        {
          "internalType": "bytes32",
          "name": "",
          "type": "bytes32"
        }
      ],
      "name": "requestResults",
      "outputs": [
        {
          "internalType": "int256",
          "name": "",
          "type": "int256"
        }
      ],
      "stateMutability": "view",
      "type": "function"
    },
    {
      "inputs": [
        {
          "internalType": "bytes32",
          "name": "",
          "type": "bytes32"
        }
      ],
      "name": "requesterAddresses",
      "outputs": [
        {
          "internalType": "address",
          "name": "",
          "type": "address"
        }
      ],
      "stateMutability": "view",
      "type": "function"
    },
    {
      "inputs": [],
      "name": "sponsorWalletAddress",
      "outputs": [
        {
          "internalType": "address",
          "name": "",
          "type": "address"
        }
      ],
      "stateMutability": "view",
      "type": "function"
    }
  ],
  "bytecode": "0x60a06040526040518060c0016040528060828152602001620022e9608291396000908051906020019062000035929190620001cf565b507f31530000000000000000000000000000000000000000000000000000000000007f73746174656d656e74000000000000000000000000000000000000000000000060006040516020016200008e9392919062000442565b60405160208183030381529060405260019080519060200190620000b492919062000260565b506040516200236b3803806200236b8339818101604052810190620000da9190620004f0565b808073ffffffffffffffffffffffffffffffffffffffff1660808173ffffffffffffffffffffffffffffffffffffffff16815250508073ffffffffffffffffffffffffffffffffffffffff1663addf027c3060016040518363ffffffff1660e01b81526004016200014d92919062000550565b600060405180830381600087803b1580156200016857600080fd5b505af11580156200017d573d6000803e3d6000fd5b505050505060003411620001c8576040517f08c379a0000000000000000000000000000000000000000000000000000000008152600401620001bf90620005f3565b60405180910390fd5b5062000615565b828054620001dd906200035a565b90600052602060002090601f0160209004810192826200020157600085556200024d565b82601f106200021c57805160ff19168380011785556200024d565b828001600101855582156200024d579182015b828111156200024c5782518255916020019190600101906200022f565b5b5090506200025c9190620002f1565b5090565b8280546200026e906200035a565b90600052602060002090601f016020900481019282620002925760008555620002de565b82601f10620002ad57805160ff1916838001178555620002de565b82800160010185558215620002de579182015b82811115620002dd578251825591602001919060010190620002c0565b5b509050620002ed9190620002f1565b5090565b5b808211156200030c576000816000905550600101620002f2565b5090565b6000819050919050565b620003258162000310565b82525050565b7f4e487b7100000000000000000000000000000000000000000000000000000000600052602260045260246000fd5b600060028204905060018216806200037357607f821691505b602082108114156200038a57620003896200032b565b5b50919050565b600082825260208201905092915050565b60008190508160005260206000209050919050565b60008154620003c5816200035a565b620003d1818662000390565b94506001821660008114620003ef5760018114620004025762000439565b60ff198316865260208601935062000439565b6200040d85620003a1565b60005b83811015620004315781548189015260018201915060208101905062000410565b808801955050505b50505092915050565b60006060820190506200045960008301866200031a565b6200046860208301856200031a565b81810360408301526200047c8184620003b6565b9050949350505050565b600080fd5b600073ffffffffffffffffffffffffffffffffffffffff82169050919050565b6000620004b8826200048b565b9050919050565b620004ca81620004ab565b8114620004d657600080fd5b50565b600081519050620004ea81620004bf565b92915050565b60006020828403121562000509576200050862000486565b5b60006200051984828501620004d9565b91505092915050565b6200052d81620004ab565b82525050565b60008115159050919050565b6200054a8162000533565b82525050565b600060408201905062000567600083018562000522565b6200057660208301846200053f565b9392505050565b7f4d7573742073656e6420736f6d6520657468657220746f2066756e642074686560008201527f20686f7573652077616c6c657400000000000000000000000000000000000000602082015250565b6000620005db602d8362000390565b9150620005e8826200057d565b604082019050919050565b600060208201905081810360008301526200060e81620005cc565b9050919050565b608051611c9c6200064d60003960008181610364015281816106120152818161088c01528181610c540152610e160152611c9c6000f3fe6080604052600436106100dd5760003560e01c806382d0fd681161007f578063911b812d11610059578063911b812d146102b5578063b099cceb146102e0578063dd2ae83f146102fc578063f764405e14610339576100dd565b806382d0fd681461020b578063890357301461024857806389a78f1a14610273576100dd565b806319f75100116100bb57806319f751001461014d5780636f3945981461017857806371bab666146101b557806377e20df8146101e0576100dd565b8063042f26cc146100e257806312a2e07b1461010b57806316bfbc6614610122575b600080fd5b3480156100ee57600080fd5b506101096004803603810190610104919061122a565b610362565b005b34801561011757600080fd5b5061012061057f565b005b34801561012e57600080fd5b506101376107b1565b6040516101449190611323565b60405180910390f35b34801561015957600080fd5b5061016261083f565b60405161016f9190611386565b60405180910390f35b34801561018457600080fd5b5061019f600480360381019061019a91906113a1565b610857565b6040516101ac9190611386565b60405180910390f35b3480156101c157600080fd5b506101ca61088a565b6040516101d7919061142d565b60405180910390f35b3480156101ec57600080fd5b506101f56108ae565b6040516102029190611457565b60405180910390f35b34801561021757600080fd5b50610232600480360381019061022d91906113a1565b6108d5565b60405161023f919061148b565b60405180910390f35b34801561025457600080fd5b5061025d6108ed565b60405161026a91906114fb565b60405180910390f35b34801561027f57600080fd5b5061029a60048036038101906102959190611549565b61097b565b6040516102ac969594939291906115aa565b60405180910390f35b3480156102c157600080fd5b506102ca6109f1565b6040516102d79190611386565b60405180910390f35b6102fa60048036038101906102f59190611637565b610a09565b005b34801561030857600080fd5b50610323600480360381019061031e91906113a1565b610df4565b6040516103309190611664565b60405180910390f35b34801561034557600080fd5b50610360600480360381019061035b919061122a565b610e14565b005b7f000000000000000000000000000000000000000000000000000000000000000073ffffffffffffffffffffffffffffffffffffffff163373ffffffffffffffffffffffffffffffffffffffff16146103f0576040517f08c379a00000000000000000000000000000000000000000000000000000000081526004016103e7906116cb565b60405180910390fd5b6002600084815260200190815260200160002060009054906101000a900460ff16610450576040517f08c379a000000000000000000000000000000000000000000000000000000000815260040161044790611737565b60405180910390fd5b6002600084815260200190815260200160002060006101000a81549060ff0219169055600082828101906104849190611783565b905080600560008681526020019081526020016000208190555060006003600086815260200190815260200160002060009054906101000a900473ffffffffffffffffffffffffffffffffffffffff1690506001600460008373ffffffffffffffffffffffffffffffffffffffff1673ffffffffffffffffffffffffffffffffffffffff16815260200190815260200160002060040160006101000a81548160ff02191690831515021790555081600460008373ffffffffffffffffffffffffffffffffffffffff1673ffffffffffffffffffffffffffffffffffffffff168152602001908152602001600020600301819055505050505050565b600460003373ffffffffffffffffffffffffffffffffffffffff1673ffffffffffffffffffffffffffffffffffffffff16815260200190815260200160002060040160009054906101000a900460ff1661060e576040517f08c379a0000000000000000000000000000000000000000000000000000000008152600401610605906117fc565b60405180910390fd5b60007f000000000000000000000000000000000000000000000000000000000000000073ffffffffffffffffffffffffffffffffffffffff16636e6be03f73251b60bab5a32522183427b160e7c07a1f2f1c027f7d11ecb8aa6482478859a752bb4c213b91b4bef230e47784b945200ec18d4ac560001b73251b60bab5a32522183427b160e7c07a1f2f1c0273bacbb77a52fa79309611bae3b15426129740f43b3063f764405e60e01b60016040518863ffffffff1660e01b81526004016106dc979695949392919061194d565b602060405180830381600087803b1580156106f657600080fd5b505af115801561070a573d6000803e3d6000fd5b505050506040513d601f19601f8201168201806040525081019061072e91906119d8565b905060016002600083815260200190815260200160002060006101000a81548160ff021916908315150217905550336003600083815260200190815260200160002060006101000a81548173ffffffffffffffffffffffffffffffffffffffff021916908373ffffffffffffffffffffffffffffffffffffffff16021790555050565b600080546107be90611886565b80601f01602080910402602001604051908101604052809291908181526020018280546107ea90611886565b80156108375780601f1061080c57610100808354040283529160200191610837565b820191906000526020600020905b81548152906001019060200180831161081a57829003601f168201915b505050505081565b73251b60bab5a32522183427b160e7c07a1f2f1c0281565b60036020528060005260406000206000915054906101000a900473ffffffffffffffffffffffffffffffffffffffff1681565b7f000000000000000000000000000000000000000000000000000000000000000081565b7f7d11ecb8aa6482478859a752bb4c213b91b4bef230e47784b945200ec18d4ac560001b81565b60056020528060005260406000206000915090505481565b600180546108fa90611886565b80601f016020809104026020016040519081016040528092919081815260200182805461092690611886565b80156109735780601f1061094857610100808354040283529160200191610973565b820191906000526020600020905b81548152906001019060200180831161095657829003601f168201915b505050505081565b60046020528060005260406000206000915090508060000154908060010160009054906101000a900460ff16908060010160019054906101000a900473ffffffffffffffffffffffffffffffffffffffff16908060020154908060030154908060040160009054906101000a900460ff16905086565b73bacbb77a52fa79309611bae3b15426129740f43b81565b600460003373ffffffffffffffffffffffffffffffffffffffff1673ffffffffffffffffffffffffffffffffffffffff16815260200190815260200160002060040160009054906101000a900460ff1615610a99576040517f08c379a0000000000000000000000000000000000000000000000000000000008152600401610a9090611a51565b60405180910390fd5b6000341015610add576040517f08c379a0000000000000000000000000000000000000000000000000000000008152600401610ad490611abd565b60405180910390fd5b47341115610b20576040517f08c379a0000000000000000000000000000000000000000000000000000000008152600401610b1790611b29565b60405180910390fd5b6040518060c0016040528034815260200182151581526020013373ffffffffffffffffffffffffffffffffffffffff1681526020014281526020016000815260200160001515815250600460003373ffffffffffffffffffffffffffffffffffffffff1673ffffffffffffffffffffffffffffffffffffffff1681526020019081526020016000206000820151816000015560208201518160010160006101000a81548160ff02191690831515021790555060408201518160010160016101000a81548173ffffffffffffffffffffffffffffffffffffffff021916908373ffffffffffffffffffffffffffffffffffffffff160217905550606082015181600201556080820151816003015560a08201518160040160006101000a81548160ff02191690831515021790555090505060007f000000000000000000000000000000000000000000000000000000000000000073ffffffffffffffffffffffffffffffffffffffff16636e6be03f73251b60bab5a32522183427b160e7c07a1f2f1c027f7d11ecb8aa6482478859a752bb4c213b91b4bef230e47784b945200ec18d4ac560001b73251b60bab5a32522183427b160e7c07a1f2f1c0273bacbb77a52fa79309611bae3b15426129740f43b3063042f26cc60e01b60016040518863ffffffff1660e01b8152600401610d1e979695949392919061194d565b602060405180830381600087803b158015610d3857600080fd5b505af1158015610d4c573d6000803e3d6000fd5b505050506040513d601f19601f82011682018060405250810190610d7091906119d8565b905060016002600083815260200190815260200160002060006101000a81548160ff021916908315150217905550336003600083815260200190815260200160002060006101000a81548173ffffffffffffffffffffffffffffffffffffffff021916908373ffffffffffffffffffffffffffffffffffffffff1602179055505050565b60026020528060005260406000206000915054906101000a900460ff1681565b7f000000000000000000000000000000000000000000000000000000000000000073ffffffffffffffffffffffffffffffffffffffff163373ffffffffffffffffffffffffffffffffffffffff1614610ea2576040517f08c379a0000000000000000000000000000000000000000000000000000000008152600401610e99906116cb565b60405180910390fd5b6002600084815260200190815260200160002060009054906101000a900460ff16610f02576040517f08c379a0000000000000000000000000000000000000000000000000000000008152600401610ef990611737565b60405180910390fd5b6002600084815260200190815260200160002060006101000a81549060ff021916905560008282810190610f369190611783565b90506103e881610f469190611b78565b905080600560008681526020019081526020016000208190555060006003600086815260200190815260200160002060009054906101000a900473ffffffffffffffffffffffffffffffffffffffff1690506000600460008373ffffffffffffffffffffffffffffffffffffffff1673ffffffffffffffffffffffffffffffffffffffff16815260200190815260200160002060040160006101000a81548160ff0219169083151502179055506000600460008373ffffffffffffffffffffffffffffffffffffffff1673ffffffffffffffffffffffffffffffffffffffff1681526020019081526020016000206040518060c0016040529081600082015481526020016001820160009054906101000a900460ff161515151581526020016001820160019054906101000a900473ffffffffffffffffffffffffffffffffffffffff1673ffffffffffffffffffffffffffffffffffffffff1673ffffffffffffffffffffffffffffffffffffffff16815260200160028201548152602001600382015481526020016004820160009054906101000a900460ff1615151515815250509050806020015180156110ff5750806080015183135b8061111c5750806020015115801561111b575080608001518313155b5b1561117d57806040015173ffffffffffffffffffffffffffffffffffffffff166108fc600283600001516111509190611c0c565b9081150290604051600060405180830381858888f1935050505015801561117b573d6000803e3d6000fd5b505b505050505050565b600080fd5b600080fd5b6000819050919050565b6111a28161118f565b81146111ad57600080fd5b50565b6000813590506111bf81611199565b92915050565b600080fd5b600080fd5b600080fd5b60008083601f8401126111ea576111e96111c5565b5b8235905067ffffffffffffffff811115611207576112066111ca565b5b602083019150836001820283011115611223576112226111cf565b5b9250929050565b60008060006040848603121561124357611242611185565b5b6000611251868287016111b0565b935050602084013567ffffffffffffffff8111156112725761127161118a565b5b61127e868287016111d4565b92509250509250925092565b600081519050919050565b600082825260208201905092915050565b60005b838110156112c45780820151818401526020810190506112a9565b838111156112d3576000848401525b50505050565b6000601f19601f8301169050919050565b60006112f58261128a565b6112ff8185611295565b935061130f8185602086016112a6565b611318816112d9565b840191505092915050565b6000602082019050818103600083015261133d81846112ea565b905092915050565b600073ffffffffffffffffffffffffffffffffffffffff82169050919050565b600061137082611345565b9050919050565b61138081611365565b82525050565b600060208201905061139b6000830184611377565b92915050565b6000602082840312156113b7576113b6611185565b5b60006113c5848285016111b0565b91505092915050565b6000819050919050565b60006113f36113ee6113e984611345565b6113ce565b611345565b9050919050565b6000611405826113d8565b9050919050565b6000611417826113fa565b9050919050565b6114278161140c565b82525050565b6000602082019050611442600083018461141e565b92915050565b6114518161118f565b82525050565b600060208201905061146c6000830184611448565b92915050565b6000819050919050565b61148581611472565b82525050565b60006020820190506114a0600083018461147c565b92915050565b600081519050919050565b600082825260208201905092915050565b60006114cd826114a6565b6114d781856114b1565b93506114e78185602086016112a6565b6114f0816112d9565b840191505092915050565b6000602082019050818103600083015261151581846114c2565b905092915050565b61152681611365565b811461153157600080fd5b50565b6000813590506115438161151d565b92915050565b60006020828403121561155f5761155e611185565b5b600061156d84828501611534565b91505092915050565b6000819050919050565b61158981611576565b82525050565b60008115159050919050565b6115a48161158f565b82525050565b600060c0820190506115bf6000830189611580565b6115cc602083018861159b565b6115d96040830187611377565b6115e66060830186611580565b6115f3608083018561147c565b61160060a083018461159b565b979650505050505050565b6116148161158f565b811461161f57600080fd5b50565b6000813590506116318161160b565b92915050565b60006020828403121561164d5761164c611185565b5b600061165b84828501611622565b91505092915050565b6000602082019050611679600083018461159b565b92915050565b7f43616c6c6572206e6f74204169726e6f64652052525000000000000000000000600082015250565b60006116b5601683611295565b91506116c08261167f565b602082019050919050565b600060208201905081810360008301526116e4816116a8565b9050919050565b7f4e6f20737563682072657175657374206d616465000000000000000000000000600082015250565b6000611721601483611295565b915061172c826116eb565b602082019050919050565b6000602082019050818103600083015261175081611714565b9050919050565b61176081611472565b811461176b57600080fd5b50565b60008135905061177d81611757565b92915050565b60006020828403121561179957611798611185565b5b60006117a78482850161176e565b91505092915050565b7f596f752068617665206e6f206f70656e20626574730000000000000000000000600082015250565b60006117e6601583611295565b91506117f1826117b0565b602082019050919050565b60006020820190508181036000830152611815816117d9565b9050919050565b60007fffffffff0000000000000000000000000000000000000000000000000000000082169050919050565b6118518161181c565b82525050565b7f4e487b7100000000000000000000000000000000000000000000000000000000600052602260045260246000fd5b6000600282049050600182168061189e57607f821691505b602082108114156118b2576118b1611857565b5b50919050565b60008190508160005260206000209050919050565b600081546118da81611886565b6118e481866114b1565b945060018216600081146118ff576001811461191157611944565b60ff1983168652602086019350611944565b61191a856118b8565b60005b8381101561193c5781548189015260018201915060208101905061191d565b808801955050505b50505092915050565b600060e082019050611962600083018a611377565b61196f6020830189611448565b61197c6040830188611377565b6119896060830187611377565b6119966080830186611377565b6119a360a0830185611848565b81810360c08301526119b581846118cd565b905098975050505050505050565b6000815190506119d281611199565b92915050565b6000602082840312156119ee576119ed611185565b5b60006119fc848285016119c3565b91505092915050565b7f596f7520616c72656164792068617665206120626574206f70656e0000000000600082015250565b6000611a3b601b83611295565b9150611a4682611a05565b602082019050919050565b60006020820190508181036000830152611a6a81611a2e565b9050919050565b7f506c6561736520696e636c75646520796f75722062657420616d6f756e740000600082015250565b6000611aa7601e83611295565b9150611ab282611a71565b602082019050919050565b60006020820190508181036000830152611ad681611a9a565b9050919050565b7f486f7573652077616c6c657420697320746f6f206c6f77000000000000000000600082015250565b6000611b13601783611295565b9150611b1e82611add565b602082019050919050565b60006020820190508181036000830152611b4281611b06565b9050919050565b7f4e487b7100000000000000000000000000000000000000000000000000000000600052601160045260246000fd5b6000611b8382611472565b9150611b8e83611472565b9250817f7fffffffffffffffffffffffffffffffffffffffffffffffffffffffffffffff03831360008312151615611bc957611bc8611b49565b5b817f8000000000000000000000000000000000000000000000000000000000000000038312600083121615611c0157611c00611b49565b5b828201905092915050565b6000611c1782611576565b9150611c2283611576565b9250817fffffffffffffffffffffffffffffffffffffffffffffffffffffffffffffffff0483118215151615611c5b57611c5a611b49565b5b82820290509291505056fea2646970667358221220a98983c142e5ea44a6975765c102f0802384996dc534d6d9d91fac15e562b1ff64736f6c6343000809003353454c4543542053554d28434f4e4649524d4544292046524f4d204a48555f44415348424f4152445f434f5649445f31395f474c4f42414c20574845524520434f554e5452595f524547494f4e203d2027556e69746564205374617465732720414e442050524f56494e43455f5354415445203d202743616c69666f726e6961273b",
  "linkReferences": {},
  "deployedLinkReferences": {}
}