{
  "_format": "hh-sol-artifact-1",
  "contractName": "Requester",
  "sourceName": "contracts/Requester.sol",
  "abi": [
    {
      "inputs": [
        {
          "internalType": "address",
          "name": "airnodeAddress",
          "type": "address"
        }
      ],
      "stateMutability": "payable",
      "type": "constructor"
    },
    {
      "inputs": [],
      "name": "airnodeRrp",
      "outputs": [
        {
          "internalType": "contract IAirnodeRrp",
          "name": "",
          "type": "address"
        }
      ],
      "stateMutability": "view",
      "type": "function"
    },
    {
      "inputs": [],
      "name": "airnodeWalletAddress",
      "outputs": [
        {
          "internalType": "address",
          "name": "",
          "type": "address"
        }
      ],
      "stateMutability": "view",
      "type": "function"
    },
    {
      "inputs": [
        {
          "internalType": "address",
          "name": "",
          "type": "address"
        }
      ],
      "name": "bets",
      "outputs": [
        {
          "internalType": "uint256",
          "name": "amount",
          "type": "uint256"
        },
        {
          "internalType": "bool",
          "name": "above",
          "type": "bool"
        },
        {
          "internalType": "address",
          "name": "player",
          "type": "address"
        },
        {
          "internalType": "uint256",
          "name": "startTime",
          "type": "uint256"
        },
        {
          "internalType": "int256",
          "name": "yesterdaysCases",
          "type": "int256"
        },
        {
          "internalType": "bool",
          "name": "open",
          "type": "bool"
        }
      ],
      "stateMutability": "view",
      "type": "function"
    },
    {
      "inputs": [],
      "name": "callBet",
      "outputs": [],
      "stateMutability": "nonpayable",
      "type": "function"
    },
    {
      "inputs": [
        {
          "internalType": "bytes32",
          "name": "requestId",
          "type": "bytes32"
        },
        {
          "internalType": "bytes",
          "name": "data",
          "type": "bytes"
        }
      ],
      "name": "closeBet",
      "outputs": [],
      "stateMutability": "nonpayable",
      "type": "function"
    },
    {
      "inputs": [],
      "name": "dailyCasesSQL",
      "outputs": [
        {
          "internalType": "string",
          "name": "",
          "type": "string"
        }
      ],
      "stateMutability": "view",
      "type": "function"
    },
    {
      "inputs": [],
      "name": "endpointId",
      "outputs": [
        {
          "internalType": "bytes32",
          "name": "",
          "type": "bytes32"
        }
      ],
      "stateMutability": "view",
      "type": "function"
    },
    {
      "inputs": [
        {
          "internalType": "bytes32",
          "name": "requestId",
          "type": "bytes32"
        },
        {
          "internalType": "bytes",
          "name": "data",
          "type": "bytes"
        }
      ],
      "name": "fulfillYesterdaysCases",
      "outputs": [],
      "stateMutability": "nonpayable",
      "type": "function"
    },
    {
      "inputs": [
        {
          "internalType": "bytes32",
          "name": "",
          "type": "bytes32"
        }
      ],
      "name": "incomingFulfillments",
      "outputs": [
        {
          "internalType": "bool",
          "name": "",
          "type": "bool"
        }
      ],
      "stateMutability": "view",
      "type": "function"
    },
    {
      "inputs": [
        {
          "internalType": "bool",
          "name": "_above",
          "type": "bool"
        }
      ],
      "name": "makeBet",
      "outputs": [],
      "stateMutability": "payable",
      "type": "function"
    },
    {
      "inputs": [],
      "name": "parameters",
      "outputs": [
        {
          "internalType": "bytes",
          "name": "",
          "type": "bytes"
        }
      ],
      "stateMutability": "view",
      "type": "function"
    },
    {
      "inputs": [
        {
          "internalType": "bytes32",
          "name": "",
          "type": "bytes32"
        }
      ],
      "name": "requestResults",
      "outputs": [
        {
          "internalType": "int256",
          "name": "",
          "type": "int256"
        }
      ],
      "stateMutability": "view",
      "type": "function"
    },
    {
      "inputs": [
        {
          "internalType": "bytes32",
          "name": "",
          "type": "bytes32"
        }
      ],
      "name": "requesterAddresses",
      "outputs": [
        {
          "internalType": "address",
          "name": "",
          "type": "address"
        }
      ],
      "stateMutability": "view",
      "type": "function"
    },
    {
      "inputs": [],
      "name": "sponsorWalletAddress",
      "outputs": [
        {
          "internalType": "address",
          "name": "",
          "type": "address"
        }
      ],
      "stateMutability": "view",
      "type": "function"
    }
  ],
  "bytecode": "0x60a06040527f31535353000000000000000000000000000000000000000000000000000000007f73746174656d656e7400000000000000000000000000000000000000000000006040518060c001604052806087815260200162002568608791397f5f706174680000000000000000000000000000000000000000000000000000007f5f74797065000000000000000000000000000000000000000000000000000000604051602001620000b895949392919062000408565b60405160208183030381529060405260009080519060200190620000de929190620001f9565b50604051620025ef380380620025ef833981810160405281019062000104919062000500565b808073ffffffffffffffffffffffffffffffffffffffff1660808173ffffffffffffffffffffffffffffffffffffffff16815250508073ffffffffffffffffffffffffffffffffffffffff1663addf027c3060016040518363ffffffff1660e01b81526004016200017792919062000560565b600060405180830381600087803b1580156200019257600080fd5b505af1158015620001a7573d6000803e3d6000fd5b505050505060003411620001f2576040517f08c379a0000000000000000000000000000000000000000000000000000000008152600401620001e99062000603565b60405180910390fd5b506200068a565b828054620002079062000654565b90600052602060002090601f0160209004810192826200022b576000855562000277565b82601f106200024657805160ff191683800117855562000277565b8280016001018555821562000277579182015b828111156200027657825182559160200191906001019062000259565b5b5090506200028691906200028a565b5090565b5b80821115620002a55760008160009055506001016200028b565b5090565b6000819050919050565b620002be81620002a9565b82525050565b600081519050919050565b600082825260208201905092915050565b60005b8381101562000300578082015181840152602081019050620002e3565b8381111562000310576000848401525b50505050565b6000601f19601f8301169050919050565b60006200033482620002c4565b620003408185620002cf565b935062000352818560208601620002e0565b6200035d8162000316565b840191505092915050565b7f4341534553000000000000000000000000000000000000000000000000000000600082015250565b6000620003a0600583620002cf565b9150620003ad8262000368565b602082019050919050565b7f696e743235360000000000000000000000000000000000000000000000000000600082015250565b6000620003f0600683620002cf565b9150620003fd82620003b8565b602082019050919050565b600060e0820190506200041f6000830188620002b3565b6200042e6020830187620002b3565b818103604083015262000442818662000327565b9050620004536060830185620002b3565b8181036080830152620004668162000391565b90506200047760a0830184620002b3565b81810360c08301526200048a81620003e1565b90509695505050505050565b600080fd5b600073ffffffffffffffffffffffffffffffffffffffff82169050919050565b6000620004c8826200049b565b9050919050565b620004da81620004bb565b8114620004e657600080fd5b50565b600081519050620004fa81620004cf565b92915050565b60006020828403121562000519576200051862000496565b5b60006200052984828501620004e9565b91505092915050565b6200053d81620004bb565b82525050565b60008115159050919050565b6200055a8162000543565b82525050565b600060408201905062000577600083018562000532565b6200058660208301846200054f565b9392505050565b7f4d7573742073656e6420736f6d6520657468657220746f2066756e642074686560008201527f20686f7573652077616c6c657400000000000000000000000000000000000000602082015250565b6000620005eb602d83620002cf565b9150620005f8826200058d565b604082019050919050565b600060208201905081810360008301526200061e81620005dc565b9050919050565b7f4e487b7100000000000000000000000000000000000000000000000000000000600052602260045260246000fd5b600060028204905060018216806200066d57607f821691505b6020821081141562000684576200068362000625565b5b50919050565b608051611ea6620006c260003960008181610364015281816106a2015281816108a901528181610c710152610e320152611ea66000f3fe6080604052600436106100dd5760003560e01c806382d0fd681161007f578063911b812d11610059578063911b812d146102b5578063b099cceb146102e0578063dd2ae83f146102fc578063f764405e14610339576100dd565b806382d0fd681461020b578063890357301461024857806389a78f1a14610273576100dd565b806319f75100116100bb57806319f751001461014d5780636f3945981461017857806371bab666146101b557806377e20df8146101e0576100dd565b8063042f26cc146100e257806312a2e07b1461010b57806316bfbc6614610122575b600080fd5b3480156100ee57600080fd5b50610109600480360381019061010491906112d5565b610362565b005b34801561011757600080fd5b5061012061060f565b005b34801561012e57600080fd5b50610137610840565b60405161014491906113ce565b60405180910390f35b34801561015957600080fd5b5061016261085c565b60405161016f9190611431565b60405180910390f35b34801561018457600080fd5b5061019f600480360381019061019a919061144c565b610874565b6040516101ac9190611431565b60405180910390f35b3480156101c157600080fd5b506101ca6108a7565b6040516101d791906114d8565b60405180910390f35b3480156101ec57600080fd5b506101f56108cb565b6040516102029190611502565b60405180910390f35b34801561021757600080fd5b50610232600480360381019061022d919061144c565b6108f2565b60405161023f9190611536565b60405180910390f35b34801561025457600080fd5b5061025d61090a565b60405161026a91906115a6565b60405180910390f35b34801561027f57600080fd5b5061029a600480360381019061029591906115f4565b610998565b6040516102ac96959493929190611655565b60405180910390f35b3480156102c157600080fd5b506102ca610a0e565b6040516102d79190611431565b60405180910390f35b6102fa60048036038101906102f591906116e2565b610a26565b005b34801561030857600080fd5b50610323600480360381019061031e919061144c565b610e10565b604051610330919061170f565b60405180910390f35b34801561034557600080fd5b50610360600480360381019061035b91906112d5565b610e30565b005b7f000000000000000000000000000000000000000000000000000000000000000073ffffffffffffffffffffffffffffffffffffffff163373ffffffffffffffffffffffffffffffffffffffff16146103f0576040517f08c379a00000000000000000000000000000000000000000000000000000000081526004016103e790611776565b60405180910390fd5b6001600084815260200190815260200160002060009054906101000a900460ff16610450576040517f08c379a0000000000000000000000000000000000000000000000000000000008152600401610447906117e2565b60405180910390fd5b6001600084815260200190815260200160002060006101000a81549060ff021916905560008282810190610484919061182e565b905080600460008681526020019081526020016000208190555060006002600086815260200190815260200160002060009054906101000a900473ffffffffffffffffffffffffffffffffffffffff169050600360008273ffffffffffffffffffffffffffffffffffffffff1673ffffffffffffffffffffffffffffffffffffffff16815260200190815260200160002060040160009054906101000a900460ff1615610566576040517f08c379a000000000000000000000000000000000000000000000000000000000815260040161055d906118a7565b60405180910390fd5b6001600360008373ffffffffffffffffffffffffffffffffffffffff1673ffffffffffffffffffffffffffffffffffffffff16815260200190815260200160002060040160006101000a81548160ff02191690831515021790555081600360008373ffffffffffffffffffffffffffffffffffffffff1673ffffffffffffffffffffffffffffffffffffffff168152602001908152602001600020600301819055505050505050565b600360003373ffffffffffffffffffffffffffffffffffffffff1673ffffffffffffffffffffffffffffffffffffffff16815260200190815260200160002060040160009054906101000a900460ff1661069e576040517f08c379a000000000000000000000000000000000000000000000000000000000815260040161069590611913565b60405180910390fd5b60007f000000000000000000000000000000000000000000000000000000000000000073ffffffffffffffffffffffffffffffffffffffff16636e6be03f734cfe1ad38ca18807a4d5533fd5556d4d2b73f6917fd3e4bdc2aedbdd3a24942b92486d51fdab98a2e1f3bdc5a3297be8752d5654e060001b734cfe1ad38ca18807a4d5533fd5556d4d2b73f691731648cf440ee5b0da25dfe78e7cbb94668a374c943063f764405e60e01b60006040518863ffffffff1660e01b815260040161076c9796959493929190611a64565b602060405180830381600087803b15801561078657600080fd5b505af115801561079a573d6000803e3d6000fd5b505050506040513d601f19601f820116820180604052508101906107be9190611aef565b9050600180600083815260200190815260200160002060006101000a81548160ff021916908315150217905550336002600083815260200190815260200160002060006101000a81548173ffffffffffffffffffffffffffffffffffffffff021916908373ffffffffffffffffffffffffffffffffffffffff16021790555050565b6040518060c0016040528060878152602001611dea6087913981565b734cfe1ad38ca18807a4d5533fd5556d4d2b73f69181565b60026020528060005260406000206000915054906101000a900473ffffffffffffffffffffffffffffffffffffffff1681565b7f000000000000000000000000000000000000000000000000000000000000000081565b7fd3e4bdc2aedbdd3a24942b92486d51fdab98a2e1f3bdc5a3297be8752d5654e060001b81565b60046020528060005260406000206000915090505481565b600080546109179061199d565b80601f01602080910402602001604051908101604052809291908181526020018280546109439061199d565b80156109905780601f1061096557610100808354040283529160200191610990565b820191906000526020600020905b81548152906001019060200180831161097357829003601f168201915b505050505081565b60036020528060005260406000206000915090508060000154908060010160009054906101000a900460ff16908060010160019054906101000a900473ffffffffffffffffffffffffffffffffffffffff16908060020154908060030154908060040160009054906101000a900460ff16905086565b731648cf440ee5b0da25dfe78e7cbb94668a374c9481565b600360003373ffffffffffffffffffffffffffffffffffffffff1673ffffffffffffffffffffffffffffffffffffffff16815260200190815260200160002060040160009054906101000a900460ff1615610ab6576040517f08c379a0000000000000000000000000000000000000000000000000000000008152600401610aad90611b68565b60405180910390fd5b6000341015610afa576040517f08c379a0000000000000000000000000000000000000000000000000000000008152600401610af190611bd4565b60405180910390fd5b47341115610b3d576040517f08c379a0000000000000000000000000000000000000000000000000000000008152600401610b3490611c40565b60405180910390fd5b6040518060c0016040528034815260200182151581526020013373ffffffffffffffffffffffffffffffffffffffff1681526020014281526020016000815260200160001515815250600360003373ffffffffffffffffffffffffffffffffffffffff1673ffffffffffffffffffffffffffffffffffffffff1681526020019081526020016000206000820151816000015560208201518160010160006101000a81548160ff02191690831515021790555060408201518160010160016101000a81548173ffffffffffffffffffffffffffffffffffffffff021916908373ffffffffffffffffffffffffffffffffffffffff160217905550606082015181600201556080820151816003015560a08201518160040160006101000a81548160ff02191690831515021790555090505060007f000000000000000000000000000000000000000000000000000000000000000073ffffffffffffffffffffffffffffffffffffffff16636e6be03f734cfe1ad38ca18807a4d5533fd5556d4d2b73f6917fd3e4bdc2aedbdd3a24942b92486d51fdab98a2e1f3bdc5a3297be8752d5654e060001b734cfe1ad38ca18807a4d5533fd5556d4d2b73f691731648cf440ee5b0da25dfe78e7cbb94668a374c943063042f26cc60e01b60006040518863ffffffff1660e01b8152600401610d3b9796959493929190611a64565b602060405180830381600087803b158015610d5557600080fd5b505af1158015610d69573d6000803e3d6000fd5b505050506040513d601f19601f82011682018060405250810190610d8d9190611aef565b9050600180600083815260200190815260200160002060006101000a81548160ff021916908315150217905550336002600083815260200190815260200160002060006101000a81548173ffffffffffffffffffffffffffffffffffffffff021916908373ffffffffffffffffffffffffffffffffffffffff1602179055505050565b60016020528060005260406000206000915054906101000a900460ff1681565b7f000000000000000000000000000000000000000000000000000000000000000073ffffffffffffffffffffffffffffffffffffffff163373ffffffffffffffffffffffffffffffffffffffff1614610ebe576040517f08c379a0000000000000000000000000000000000000000000000000000000008152600401610eb590611776565b60405180910390fd5b6001600084815260200190815260200160002060009054906101000a900460ff16610f1e576040517f08c379a0000000000000000000000000000000000000000000000000000000008152600401610f15906117e2565b60405180910390fd5b6001600084815260200190815260200160002060006101000a81549060ff021916905560006002600085815260200190815260200160002060009054906101000a900473ffffffffffffffffffffffffffffffffffffffff169050600360008273ffffffffffffffffffffffffffffffffffffffff1673ffffffffffffffffffffffffffffffffffffffff16815260200190815260200160002060040160009054906101000a900460ff16611008576040517f08c379a0000000000000000000000000000000000000000000000000000000008152600401610fff90611cac565b60405180910390fd5b6000600360008373ffffffffffffffffffffffffffffffffffffffff1673ffffffffffffffffffffffffffffffffffffffff16815260200190815260200160002060040160006101000a81548160ff02191690831515021790555060008383810190611074919061182e565b90506103e8816110849190611cfb565b90508060046000878152602001908152602001600020819055506000600360008473ffffffffffffffffffffffffffffffffffffffff1673ffffffffffffffffffffffffffffffffffffffff1681526020019081526020016000206040518060c0016040529081600082015481526020016001820160009054906101000a900460ff161515151581526020016001820160019054906101000a900473ffffffffffffffffffffffffffffffffffffffff1673ffffffffffffffffffffffffffffffffffffffff1673ffffffffffffffffffffffffffffffffffffffff16815260200160028201548152602001600382015481526020016004820160009054906101000a900460ff1615151515815250509050806020015180156111aa5750806080015182135b806111c7575080602001511580156111c6575080608001518213155b5b1561122857806040015173ffffffffffffffffffffffffffffffffffffffff166108fc600283600001516111fb9190611d8f565b9081150290604051600060405180830381858888f19350505050158015611226573d6000803e3d6000fd5b505b505050505050565b600080fd5b600080fd5b6000819050919050565b61124d8161123a565b811461125857600080fd5b50565b60008135905061126a81611244565b92915050565b600080fd5b600080fd5b600080fd5b60008083601f84011261129557611294611270565b5b8235905067ffffffffffffffff8111156112b2576112b1611275565b5b6020830191508360018202830111156112ce576112cd61127a565b5b9250929050565b6000806000604084860312156112ee576112ed611230565b5b60006112fc8682870161125b565b935050602084013567ffffffffffffffff81111561131d5761131c611235565b5b6113298682870161127f565b92509250509250925092565b600081519050919050565b600082825260208201905092915050565b60005b8381101561136f578082015181840152602081019050611354565b8381111561137e576000848401525b50505050565b6000601f19601f8301169050919050565b60006113a082611335565b6113aa8185611340565b93506113ba818560208601611351565b6113c381611384565b840191505092915050565b600060208201905081810360008301526113e88184611395565b905092915050565b600073ffffffffffffffffffffffffffffffffffffffff82169050919050565b600061141b826113f0565b9050919050565b61142b81611410565b82525050565b60006020820190506114466000830184611422565b92915050565b60006020828403121561146257611461611230565b5b60006114708482850161125b565b91505092915050565b6000819050919050565b600061149e611499611494846113f0565b611479565b6113f0565b9050919050565b60006114b082611483565b9050919050565b60006114c2826114a5565b9050919050565b6114d2816114b7565b82525050565b60006020820190506114ed60008301846114c9565b92915050565b6114fc8161123a565b82525050565b600060208201905061151760008301846114f3565b92915050565b6000819050919050565b6115308161151d565b82525050565b600060208201905061154b6000830184611527565b92915050565b600081519050919050565b600082825260208201905092915050565b600061157882611551565b611582818561155c565b9350611592818560208601611351565b61159b81611384565b840191505092915050565b600060208201905081810360008301526115c0818461156d565b905092915050565b6115d181611410565b81146115dc57600080fd5b50565b6000813590506115ee816115c8565b92915050565b60006020828403121561160a57611609611230565b5b6000611618848285016115df565b91505092915050565b6000819050919050565b61163481611621565b82525050565b60008115159050919050565b61164f8161163a565b82525050565b600060c08201905061166a600083018961162b565b6116776020830188611646565b6116846040830187611422565b611691606083018661162b565b61169e6080830185611527565b6116ab60a0830184611646565b979650505050505050565b6116bf8161163a565b81146116ca57600080fd5b50565b6000813590506116dc816116b6565b92915050565b6000602082840312156116f8576116f7611230565b5b6000611706848285016116cd565b91505092915050565b60006020820190506117246000830184611646565b92915050565b7f43616c6c6572206e6f74204169726e6f64652052525000000000000000000000600082015250565b6000611760601683611340565b915061176b8261172a565b602082019050919050565b6000602082019050818103600083015261178f81611753565b9050919050565b7f4e6f20737563682072657175657374206d616465000000000000000000000000600082015250565b60006117cc601483611340565b91506117d782611796565b602082019050919050565b600060208201905081810360008301526117fb816117bf565b9050919050565b61180b8161151d565b811461181657600080fd5b50565b60008135905061182881611802565b92915050565b60006020828403121561184457611843611230565b5b600061185284828501611819565b91505092915050565b7f42657420616c7265616479206f70656e65642100000000000000000000000000600082015250565b6000611891601383611340565b915061189c8261185b565b602082019050919050565b600060208201905081810360008301526118c081611884565b9050919050565b7f596f752068617665206e6f206f70656e20626574730000000000000000000000600082015250565b60006118fd601583611340565b9150611908826118c7565b602082019050919050565b6000602082019050818103600083015261192c816118f0565b9050919050565b60007fffffffff0000000000000000000000000000000000000000000000000000000082169050919050565b61196881611933565b82525050565b7f4e487b7100000000000000000000000000000000000000000000000000000000600052602260045260246000fd5b600060028204905060018216806119b557607f821691505b602082108114156119c9576119c861196e565b5b50919050565b60008190508160005260206000209050919050565b600081546119f18161199d565b6119fb818661155c565b94506001821660008114611a165760018114611a2857611a5b565b60ff1983168652602086019350611a5b565b611a31856119cf565b60005b83811015611a5357815481890152600182019150602081019050611a34565b808801955050505b50505092915050565b600060e082019050611a79600083018a611422565b611a8660208301896114f3565b611a936040830188611422565b611aa06060830187611422565b611aad6080830186611422565b611aba60a083018561195f565b81810360c0830152611acc81846119e4565b905098975050505050505050565b600081519050611ae981611244565b92915050565b600060208284031215611b0557611b04611230565b5b6000611b1384828501611ada565b91505092915050565b7f596f7520616c72656164792068617665206120626574206f70656e0000000000600082015250565b6000611b52601b83611340565b9150611b5d82611b1c565b602082019050919050565b60006020820190508181036000830152611b8181611b45565b9050919050565b7f506c6561736520696e636c75646520796f75722062657420616d6f756e740000600082015250565b6000611bbe601e83611340565b9150611bc982611b88565b602082019050919050565b60006020820190508181036000830152611bed81611bb1565b9050919050565b7f486f7573652077616c6c657420697320746f6f206c6f77000000000000000000600082015250565b6000611c2a601783611340565b9150611c3582611bf4565b602082019050919050565b60006020820190508181036000830152611c5981611c1d565b9050919050565b7f42657420616c726561647920636c6f7365640000000000000000000000000000600082015250565b6000611c96601283611340565b9150611ca182611c60565b602082019050919050565b60006020820190508181036000830152611cc581611c89565b9050919050565b7f4e487b7100000000000000000000000000000000000000000000000000000000600052601160045260246000fd5b6000611d068261151d565b9150611d118361151d565b9250817f7fffffffffffffffffffffffffffffffffffffffffffffffffffffffffffffff03831360008312151615611d4c57611d4b611ccc565b5b817f8000000000000000000000000000000000000000000000000000000000000000038312600083121615611d8457611d83611ccc565b5b828201905092915050565b6000611d9a82611621565b9150611da583611621565b9250817fffffffffffffffffffffffffffffffffffffffffffffffffffffffffffffffff0483118215151615611dde57611ddd611ccc565b5b82820290509291505056fe53454c4543542053554d28434f4e4649524d4544292041532043617365732046524f4d204a48555f44415348424f4152445f434f5649445f31395f474c4f42414c20574845524520434f554e5452595f524547494f4e203d2027556e69746564205374617465732720414e44204c4153545f5245504f525445445f464c4147203d20545255453ba264697066735822122008daf4fa1cdb3c6d64cb8ca30223b03a8beabc32f466d5a9b090bb7565077f3d64736f6c6343000809003353454c4543542053554d28434f4e4649524d4544292041532043617365732046524f4d204a48555f44415348424f4152445f434f5649445f31395f474c4f42414c20574845524520434f554e5452595f524547494f4e203d2027556e69746564205374617465732720414e44204c4153545f5245504f525445445f464c4147203d20545255453b",
  "linkReferences": {},
  "deployedLinkReferences": {}
}