{
  "_format": "hh-sol-artifact-1",
  "contractName": "Requester",
  "sourceName": "contracts/Requester.sol",
  "abi": [
    {
      "inputs": [
        {
          "internalType": "address",
          "name": "_rrpAddress",
          "type": "address"
        }
      ],
      "stateMutability": "payable",
      "type": "constructor"
    },
    {
      "anonymous": false,
      "inputs": [
        {
          "indexed": true,
          "internalType": "address",
          "name": "previousOwner",
          "type": "address"
        },
        {
          "indexed": true,
          "internalType": "address",
          "name": "newOwner",
          "type": "address"
        }
      ],
      "name": "OwnershipTransferred",
      "type": "event"
    },
    {
      "inputs": [],
      "name": "airnodeAddress",
      "outputs": [
        {
          "internalType": "address",
          "name": "",
          "type": "address"
        }
      ],
      "stateMutability": "view",
      "type": "function"
    },
    {
      "inputs": [],
      "name": "airnodeRrp",
      "outputs": [
        {
          "internalType": "contract IAirnodeRrpV0",
          "name": "",
          "type": "address"
        }
      ],
      "stateMutability": "view",
      "type": "function"
    },
    {
      "inputs": [
        {
          "internalType": "address",
          "name": "",
          "type": "address"
        }
      ],
      "name": "bets",
      "outputs": [
        {
          "internalType": "uint256",
          "name": "amount",
          "type": "uint256"
        },
        {
          "internalType": "bool",
          "name": "above",
          "type": "bool"
        },
        {
          "internalType": "address",
          "name": "player",
          "type": "address"
        },
        {
          "internalType": "uint256",
          "name": "startTime",
          "type": "uint256"
        },
        {
          "internalType": "int256",
          "name": "yesterdaysPrice",
          "type": "int256"
        },
        {
          "internalType": "bool",
          "name": "open",
          "type": "bool"
        }
      ],
      "stateMutability": "view",
      "type": "function"
    },
    {
      "inputs": [],
      "name": "callBet",
      "outputs": [],
      "stateMutability": "nonpayable",
      "type": "function"
    },
    {
      "inputs": [
        {
          "internalType": "bytes32",
          "name": "requestId",
          "type": "bytes32"
        },
        {
          "internalType": "bytes",
          "name": "data",
          "type": "bytes"
        }
      ],
      "name": "closeBet",
      "outputs": [],
      "stateMutability": "nonpayable",
      "type": "function"
    },
    {
      "inputs": [],
      "name": "endpointId",
      "outputs": [
        {
          "internalType": "bytes32",
          "name": "",
          "type": "bytes32"
        }
      ],
      "stateMutability": "view",
      "type": "function"
    },
    {
      "inputs": [
        {
          "internalType": "bytes32",
          "name": "requestId",
          "type": "bytes32"
        },
        {
          "internalType": "bytes",
          "name": "data",
          "type": "bytes"
        }
      ],
      "name": "fulfillYesterdaysPrice",
      "outputs": [],
      "stateMutability": "nonpayable",
      "type": "function"
    },
    {
      "inputs": [
        {
          "internalType": "bytes32",
          "name": "",
          "type": "bytes32"
        }
      ],
      "name": "incomingFulfillments",
      "outputs": [
        {
          "internalType": "bool",
          "name": "",
          "type": "bool"
        }
      ],
      "stateMutability": "view",
      "type": "function"
    },
    {
      "inputs": [
        {
          "internalType": "bool",
          "name": "_above",
          "type": "bool"
        }
      ],
      "name": "makeBet",
      "outputs": [],
      "stateMutability": "payable",
      "type": "function"
    },
    {
      "inputs": [],
      "name": "owner",
      "outputs": [
        {
          "internalType": "address",
          "name": "",
          "type": "address"
        }
      ],
      "stateMutability": "view",
      "type": "function"
    },
    {
      "inputs": [],
      "name": "parameters",
      "outputs": [
        {
          "internalType": "bytes",
          "name": "",
          "type": "bytes"
        }
      ],
      "stateMutability": "view",
      "type": "function"
    },
    {
      "inputs": [],
      "name": "renounceOwnership",
      "outputs": [],
      "stateMutability": "nonpayable",
      "type": "function"
    },
    {
      "inputs": [
        {
          "internalType": "bytes32",
          "name": "",
          "type": "bytes32"
        }
      ],
      "name": "requestResults",
      "outputs": [
        {
          "internalType": "int256",
          "name": "",
          "type": "int256"
        }
      ],
      "stateMutability": "view",
      "type": "function"
    },
    {
      "inputs": [
        {
          "internalType": "bytes32",
          "name": "",
          "type": "bytes32"
        }
      ],
      "name": "requesterAddresses",
      "outputs": [
        {
          "internalType": "address",
          "name": "",
          "type": "address"
        }
      ],
      "stateMutability": "view",
      "type": "function"
    },
    {
      "inputs": [
        {
          "internalType": "address",
          "name": "_sponsorWalletAddress",
          "type": "address"
        }
      ],
      "name": "setSponsorWallet",
      "outputs": [],
      "stateMutability": "nonpayable",
      "type": "function"
    },
    {
      "inputs": [],
      "name": "sponsorWalletAddress",
      "outputs": [
        {
          "internalType": "address",
          "name": "",
          "type": "address"
        }
      ],
      "stateMutability": "view",
      "type": "function"
    },
    {
      "inputs": [
        {
          "internalType": "address",
          "name": "newOwner",
          "type": "address"
        }
      ],
      "name": "transferOwnership",
      "outputs": [],
      "stateMutability": "nonpayable",
      "type": "function"
    }
  ],
  "bytecode": "0x60a06040527f31535353530000000000000000000000000000000000000000000000000000007f73796d626f6c00000000000000000000000000000000000000000000000000007f6576656e740000000000000000000000000000000000000000000000000000007f5f706174680000000000000000000000000000000000000000000000000000007f5f74797065000000000000000000000000000000000000000000000000000000604051602001620000bf95949392919062000508565b60405160208183030381529060405260029080519060200190620000e5929190620002ec565b50604051620029663803806200296683398181016040528101906200010b919062000625565b808073ffffffffffffffffffffffffffffffffffffffff1660808173ffffffffffffffffffffffffffffffffffffffff16815250508073ffffffffffffffffffffffffffffffffffffffff1663addf027c3060016040518363ffffffff1660e01b81526004016200017e92919062000685565b600060405180830381600087803b1580156200019957600080fd5b505af1158015620001ae573d6000803e3d6000fd5b5050505050620001d3620001c76200022060201b60201c565b6200022860201b60201c565b6000341162000219576040517f08c379a0000000000000000000000000000000000000000000000000000000008152600401620002109062000728565b60405180910390fd5b50620007af565b600033905090565b60008060009054906101000a900473ffffffffffffffffffffffffffffffffffffffff169050816000806101000a81548173ffffffffffffffffffffffffffffffffffffffff021916908373ffffffffffffffffffffffffffffffffffffffff1602179055508173ffffffffffffffffffffffffffffffffffffffff168173ffffffffffffffffffffffffffffffffffffffff167f8be0079c531659141344cd1fd0a4f28419497f9722a3daafe3b4186f6b6457e060405160405180910390a35050565b828054620002fa9062000779565b90600052602060002090601f0160209004810192826200031e57600085556200036a565b82601f106200033957805160ff19168380011785556200036a565b828001600101855582156200036a579182015b82811115620003695782518255916020019190600101906200034c565b5b5090506200037991906200037d565b5090565b5b80821115620003985760008160009055506001016200037e565b5090565b6000819050919050565b620003b1816200039c565b82525050565b600082825260208201905092915050565b7f54534c4100000000000000000000000000000000000000000000000000000000600082015250565b600062000400600483620003b7565b91506200040d82620003c8565b602082019050919050565b7f5472616465000000000000000000000000000000000000000000000000000000600082015250565b600062000450600583620003b7565b91506200045d8262000418565b602082019050919050565b7f54726164652e54534c412e707269636500000000000000000000000000000000600082015250565b6000620004a0601083620003b7565b9150620004ad8262000468565b602082019050919050565b7f696e743235360000000000000000000000000000000000000000000000000000600082015250565b6000620004f0600683620003b7565b9150620004fd82620004b8565b602082019050919050565b600061012082019050620005206000830188620003a6565b6200052f6020830187620003a6565b81810360408301526200054281620003f1565b9050620005536060830186620003a6565b8181036080830152620005668162000441565b90506200057760a0830185620003a6565b81810360c08301526200058a8162000491565b90506200059b60e0830184620003a6565b818103610100830152620005af81620004e1565b90509695505050505050565b600080fd5b600073ffffffffffffffffffffffffffffffffffffffff82169050919050565b6000620005ed82620005c0565b9050919050565b620005ff81620005e0565b81146200060b57600080fd5b50565b6000815190506200061f81620005f4565b92915050565b6000602082840312156200063e576200063d620005bb565b5b60006200064e848285016200060e565b91505092915050565b6200066281620005e0565b82525050565b60008115159050919050565b6200067f8162000668565b82525050565b60006040820190506200069c600083018562000657565b620006ab602083018462000674565b9392505050565b7f4d7573742073656e6420736f6d6520657468657220746f2066756e642074686560008201527f20686f7573652077616c6c657400000000000000000000000000000000000000602082015250565b600062000710602d83620003b7565b91506200071d82620006b2565b604082019050919050565b60006020820190508181036000830152620007438162000701565b9050919050565b7f4e487b7100000000000000000000000000000000000000000000000000000000600052602260045260246000fd5b600060028204905060018216806200079257607f821691505b60208210811415620007a957620007a86200074a565b5b50919050565b60805161217f620007e76000396000818161047f015281816106ad01528181610aac01528181610c800152610fb1015261217f6000f3fe6080604052600436106100fe5760003560e01c806389a78f1a11610095578063d0bdd66c11610064578063d0bdd66c14610309578063dd2ae83f14610334578063e2f9c5ca14610371578063f2fde38b1461039a578063f764405e146103c3576100fe565b806389a78f1a146102555780638da5cb5b14610297578063911b812d146102c2578063b099cceb146102ed576100fe565b806371bab666116100d157806371bab6661461019757806377e20df8146101c257806382d0fd68146101ed578063890357301461022a576100fe565b806312a2e07b1461010357806337c28e631461011a5780636f39459814610143578063715018a614610180575b600080fd5b34801561010f57600080fd5b506101186103ec565b005b34801561012657600080fd5b50610141600480360381019061013c9190611560565b610618565b005b34801561014f57600080fd5b5061016a600480360381019061016591906115c3565b610664565b60405161017791906115ff565b60405180910390f35b34801561018c57600080fd5b50610195610697565b005b3480156101a357600080fd5b506101ac6106ab565b6040516101b99190611679565b60405180910390f35b3480156101ce57600080fd5b506101d76106cf565b6040516101e491906116a3565b60405180910390f35b3480156101f957600080fd5b50610214600480360381019061020f91906115c3565b6106f6565b60405161022191906116d7565b60405180910390f35b34801561023657600080fd5b5061023f61070e565b60405161024c919061178b565b60405180910390f35b34801561026157600080fd5b5061027c60048036038101906102779190611560565b61079c565b60405161028e969594939291906117e1565b60405180910390f35b3480156102a357600080fd5b506102ac610812565b6040516102b991906115ff565b60405180910390f35b3480156102ce57600080fd5b506102d761083b565b6040516102e491906115ff565b60405180910390f35b6103076004803603810190610302919061186e565b610861565b005b34801561031557600080fd5b5061031e610c46565b60405161032b91906115ff565b60405180910390f35b34801561034057600080fd5b5061035b600480360381019061035691906115c3565b610c5e565b604051610368919061189b565b60405180910390f35b34801561037d57600080fd5b506103986004803603810190610393919061191b565b610c7e565b005b3480156103a657600080fd5b506103c160048036038101906103bc9190611560565b610f2b565b005b3480156103cf57600080fd5b506103ea60048036038101906103e5919061191b565b610faf565b005b600560003373ffffffffffffffffffffffffffffffffffffffff1673ffffffffffffffffffffffffffffffffffffffff16815260200190815260200160002060040160009054906101000a900460ff1661047b576040517f08c379a0000000000000000000000000000000000000000000000000000000008152600401610472906119d8565b60405180910390fd5b60007f000000000000000000000000000000000000000000000000000000000000000073ffffffffffffffffffffffffffffffffffffffff16636e6be03f735cd4bad00e25513b1f86075bc2d066fa68b8512b7ff2c5caa3575e07b81b1d51410953dd083522c06495437acd83255a87647865c760001b30600160009054906101000a900473ffffffffffffffffffffffffffffffffffffffff163063f764405e60e01b60026040518863ffffffff1660e01b81526004016105439796959493929190611b29565b602060405180830381600087803b15801561055d57600080fd5b505af1158015610571573d6000803e3d6000fd5b505050506040513d601f19601f820116820180604052508101906105959190611bb4565b905060016003600083815260200190815260200160002060006101000a81548160ff021916908315150217905550336004600083815260200190815260200160002060006101000a81548173ffffffffffffffffffffffffffffffffffffffff021916908373ffffffffffffffffffffffffffffffffffffffff16021790555050565b6106206113ae565b80600160006101000a81548173ffffffffffffffffffffffffffffffffffffffff021916908373ffffffffffffffffffffffffffffffffffffffff16021790555050565b60046020528060005260406000206000915054906101000a900473ffffffffffffffffffffffffffffffffffffffff1681565b61069f6113ae565b6106a9600061142c565b565b7f000000000000000000000000000000000000000000000000000000000000000081565b7ff2c5caa3575e07b81b1d51410953dd083522c06495437acd83255a87647865c760001b81565b60066020528060005260406000206000915090505481565b6002805461071b90611a62565b80601f016020809104026020016040519081016040528092919081815260200182805461074790611a62565b80156107945780601f1061076957610100808354040283529160200191610794565b820191906000526020600020905b81548152906001019060200180831161077757829003601f168201915b505050505081565b60056020528060005260406000206000915090508060000154908060010160009054906101000a900460ff16908060010160019054906101000a900473ffffffffffffffffffffffffffffffffffffffff16908060020154908060030154908060040160009054906101000a900460ff16905086565b60008060009054906101000a900473ffffffffffffffffffffffffffffffffffffffff16905090565b600160009054906101000a900473ffffffffffffffffffffffffffffffffffffffff1681565b600560003373ffffffffffffffffffffffffffffffffffffffff1673ffffffffffffffffffffffffffffffffffffffff16815260200190815260200160002060040160009054906101000a900460ff16156108f1576040517f08c379a00000000000000000000000000000000000000000000000000000000081526004016108e890611c2d565b60405180910390fd5b6000341015610935576040517f08c379a000000000000000000000000000000000000000000000000000000000815260040161092c90611c99565b60405180910390fd5b47341115610978576040517f08c379a000000000000000000000000000000000000000000000000000000000815260040161096f90611d05565b60405180910390fd5b6040518060c0016040528034815260200182151581526020013373ffffffffffffffffffffffffffffffffffffffff1681526020014281526020016000815260200160001515815250600560003373ffffffffffffffffffffffffffffffffffffffff1673ffffffffffffffffffffffffffffffffffffffff1681526020019081526020016000206000820151816000015560208201518160010160006101000a81548160ff02191690831515021790555060408201518160010160016101000a81548173ffffffffffffffffffffffffffffffffffffffff021916908373ffffffffffffffffffffffffffffffffffffffff160217905550606082015181600201556080820151816003015560a08201518160040160006101000a81548160ff02191690831515021790555090505060007f000000000000000000000000000000000000000000000000000000000000000073ffffffffffffffffffffffffffffffffffffffff16636e6be03f735cd4bad00e25513b1f86075bc2d066fa68b8512b7ff2c5caa3575e07b81b1d51410953dd083522c06495437acd83255a87647865c760001b30600160009054906101000a900473ffffffffffffffffffffffffffffffffffffffff163063e2f9c5ca60e01b60026040518863ffffffff1660e01b8152600401610b709796959493929190611b29565b602060405180830381600087803b158015610b8a57600080fd5b505af1158015610b9e573d6000803e3d6000fd5b505050506040513d601f19601f82011682018060405250810190610bc29190611bb4565b905060016003600083815260200190815260200160002060006101000a81548160ff021916908315150217905550336004600083815260200190815260200160002060006101000a81548173ffffffffffffffffffffffffffffffffffffffff021916908373ffffffffffffffffffffffffffffffffffffffff1602179055505050565b735cd4bad00e25513b1f86075bc2d066fa68b8512b81565b60036020528060005260406000206000915054906101000a900460ff1681565b7f000000000000000000000000000000000000000000000000000000000000000073ffffffffffffffffffffffffffffffffffffffff163373ffffffffffffffffffffffffffffffffffffffff1614610d0c576040517f08c379a0000000000000000000000000000000000000000000000000000000008152600401610d0390611d71565b60405180910390fd5b6003600084815260200190815260200160002060009054906101000a900460ff16610d6c576040517f08c379a0000000000000000000000000000000000000000000000000000000008152600401610d6390611ddd565b60405180910390fd5b6003600084815260200190815260200160002060006101000a81549060ff021916905560008282810190610da09190611e29565b905080600660008681526020019081526020016000208190555060006004600086815260200190815260200160002060009054906101000a900473ffffffffffffffffffffffffffffffffffffffff169050600560008273ffffffffffffffffffffffffffffffffffffffff1673ffffffffffffffffffffffffffffffffffffffff16815260200190815260200160002060040160009054906101000a900460ff1615610e82576040517f08c379a0000000000000000000000000000000000000000000000000000000008152600401610e7990611ea2565b60405180910390fd5b6001600560008373ffffffffffffffffffffffffffffffffffffffff1673ffffffffffffffffffffffffffffffffffffffff16815260200190815260200160002060040160006101000a81548160ff02191690831515021790555081600560008373ffffffffffffffffffffffffffffffffffffffff1673ffffffffffffffffffffffffffffffffffffffff168152602001908152602001600020600301819055505050505050565b610f336113ae565b600073ffffffffffffffffffffffffffffffffffffffff168173ffffffffffffffffffffffffffffffffffffffff161415610fa3576040517f08c379a0000000000000000000000000000000000000000000000000000000008152600401610f9a90611f34565b60405180910390fd5b610fac8161142c565b50565b7f000000000000000000000000000000000000000000000000000000000000000073ffffffffffffffffffffffffffffffffffffffff163373ffffffffffffffffffffffffffffffffffffffff161461103d576040517f08c379a000000000000000000000000000000000000000000000000000000000815260040161103490611d71565b60405180910390fd5b6003600084815260200190815260200160002060009054906101000a900460ff1661109d576040517f08c379a000000000000000000000000000000000000000000000000000000000815260040161109490611ddd565b60405180910390fd5b6003600084815260200190815260200160002060006101000a81549060ff021916905560006004600085815260200190815260200160002060009054906101000a900473ffffffffffffffffffffffffffffffffffffffff169050600560008273ffffffffffffffffffffffffffffffffffffffff1673ffffffffffffffffffffffffffffffffffffffff16815260200190815260200160002060040160009054906101000a900460ff16611187576040517f08c379a000000000000000000000000000000000000000000000000000000000815260040161117e90611fa0565b60405180910390fd5b6000600560008373ffffffffffffffffffffffffffffffffffffffff1673ffffffffffffffffffffffffffffffffffffffff16815260200190815260200160002060040160006101000a81548160ff021916908315150217905550600083838101906111f39190611e29565b90506005816112029190611fef565b90508060066000878152602001908152602001600020819055506000600560008473ffffffffffffffffffffffffffffffffffffffff1673ffffffffffffffffffffffffffffffffffffffff1681526020019081526020016000206040518060c0016040529081600082015481526020016001820160009054906101000a900460ff161515151581526020016001820160019054906101000a900473ffffffffffffffffffffffffffffffffffffffff1673ffffffffffffffffffffffffffffffffffffffff1673ffffffffffffffffffffffffffffffffffffffff16815260200160028201548152602001600382015481526020016004820160009054906101000a900460ff1615151515815250509050806020015180156113285750806080015182135b8061134557508060200151158015611344575080608001518213155b5b156113a657806040015173ffffffffffffffffffffffffffffffffffffffff166108fc600283600001516113799190612083565b9081150290604051600060405180830381858888f193505050501580156113a4573d6000803e3d6000fd5b505b505050505050565b6113b66114f0565b73ffffffffffffffffffffffffffffffffffffffff166113d4610812565b73ffffffffffffffffffffffffffffffffffffffff161461142a576040517f08c379a000000000000000000000000000000000000000000000000000000000815260040161142190612129565b60405180910390fd5b565b60008060009054906101000a900473ffffffffffffffffffffffffffffffffffffffff169050816000806101000a81548173ffffffffffffffffffffffffffffffffffffffff021916908373ffffffffffffffffffffffffffffffffffffffff1602179055508173ffffffffffffffffffffffffffffffffffffffff168173ffffffffffffffffffffffffffffffffffffffff167f8be0079c531659141344cd1fd0a4f28419497f9722a3daafe3b4186f6b6457e060405160405180910390a35050565b600033905090565b600080fd5b600080fd5b600073ffffffffffffffffffffffffffffffffffffffff82169050919050565b600061152d82611502565b9050919050565b61153d81611522565b811461154857600080fd5b50565b60008135905061155a81611534565b92915050565b600060208284031215611576576115756114f8565b5b60006115848482850161154b565b91505092915050565b6000819050919050565b6115a08161158d565b81146115ab57600080fd5b50565b6000813590506115bd81611597565b92915050565b6000602082840312156115d9576115d86114f8565b5b60006115e7848285016115ae565b91505092915050565b6115f981611522565b82525050565b600060208201905061161460008301846115f0565b92915050565b6000819050919050565b600061163f61163a61163584611502565b61161a565b611502565b9050919050565b600061165182611624565b9050919050565b600061166382611646565b9050919050565b61167381611658565b82525050565b600060208201905061168e600083018461166a565b92915050565b61169d8161158d565b82525050565b60006020820190506116b86000830184611694565b92915050565b6000819050919050565b6116d1816116be565b82525050565b60006020820190506116ec60008301846116c8565b92915050565b600081519050919050565b600082825260208201905092915050565b60005b8381101561172c578082015181840152602081019050611711565b8381111561173b576000848401525b50505050565b6000601f19601f8301169050919050565b600061175d826116f2565b61176781856116fd565b935061177781856020860161170e565b61178081611741565b840191505092915050565b600060208201905081810360008301526117a58184611752565b905092915050565b6000819050919050565b6117c0816117ad565b82525050565b60008115159050919050565b6117db816117c6565b82525050565b600060c0820190506117f660008301896117b7565b61180360208301886117d2565b61181060408301876115f0565b61181d60608301866117b7565b61182a60808301856116c8565b61183760a08301846117d2565b979650505050505050565b61184b816117c6565b811461185657600080fd5b50565b60008135905061186881611842565b92915050565b600060208284031215611884576118836114f8565b5b600061189284828501611859565b91505092915050565b60006020820190506118b060008301846117d2565b92915050565b600080fd5b600080fd5b600080fd5b60008083601f8401126118db576118da6118b6565b5b8235905067ffffffffffffffff8111156118f8576118f76118bb565b5b602083019150836001820283011115611914576119136118c0565b5b9250929050565b600080600060408486031215611934576119336114f8565b5b6000611942868287016115ae565b935050602084013567ffffffffffffffff811115611963576119626114fd565b5b61196f868287016118c5565b92509250509250925092565b600082825260208201905092915050565b7f596f752068617665206e6f206f70656e20626574730000000000000000000000600082015250565b60006119c260158361197b565b91506119cd8261198c565b602082019050919050565b600060208201905081810360008301526119f1816119b5565b9050919050565b60007fffffffff0000000000000000000000000000000000000000000000000000000082169050919050565b611a2d816119f8565b82525050565b7f4e487b7100000000000000000000000000000000000000000000000000000000600052602260045260246000fd5b60006002820490506001821680611a7a57607f821691505b60208210811415611a8e57611a8d611a33565b5b50919050565b60008190508160005260206000209050919050565b60008154611ab681611a62565b611ac081866116fd565b94506001821660008114611adb5760018114611aed57611b20565b60ff1983168652602086019350611b20565b611af685611a94565b60005b83811015611b1857815481890152600182019150602081019050611af9565b808801955050505b50505092915050565b600060e082019050611b3e600083018a6115f0565b611b4b6020830189611694565b611b5860408301886115f0565b611b6560608301876115f0565b611b7260808301866115f0565b611b7f60a0830185611a24565b81810360c0830152611b918184611aa9565b905098975050505050505050565b600081519050611bae81611597565b92915050565b600060208284031215611bca57611bc96114f8565b5b6000611bd884828501611b9f565b91505092915050565b7f596f7520616c72656164792068617665206120626574206f70656e0000000000600082015250565b6000611c17601b8361197b565b9150611c2282611be1565b602082019050919050565b60006020820190508181036000830152611c4681611c0a565b9050919050565b7f506c6561736520696e636c75646520796f75722062657420616d6f756e740000600082015250565b6000611c83601e8361197b565b9150611c8e82611c4d565b602082019050919050565b60006020820190508181036000830152611cb281611c76565b9050919050565b7f486f7573652077616c6c657420697320746f6f206c6f77000000000000000000600082015250565b6000611cef60178361197b565b9150611cfa82611cb9565b602082019050919050565b60006020820190508181036000830152611d1e81611ce2565b9050919050565b7f43616c6c6572206e6f74204169726e6f64652052525000000000000000000000600082015250565b6000611d5b60168361197b565b9150611d6682611d25565b602082019050919050565b60006020820190508181036000830152611d8a81611d4e565b9050919050565b7f4e6f20737563682072657175657374206d616465000000000000000000000000600082015250565b6000611dc760148361197b565b9150611dd282611d91565b602082019050919050565b60006020820190508181036000830152611df681611dba565b9050919050565b611e06816116be565b8114611e1157600080fd5b50565b600081359050611e2381611dfd565b92915050565b600060208284031215611e3f57611e3e6114f8565b5b6000611e4d84828501611e14565b91505092915050565b7f42657420616c7265616479206f70656e65642100000000000000000000000000600082015250565b6000611e8c60138361197b565b9150611e9782611e56565b602082019050919050565b60006020820190508181036000830152611ebb81611e7f565b9050919050565b7f4f776e61626c653a206e6577206f776e657220697320746865207a65726f206160008201527f6464726573730000000000000000000000000000000000000000000000000000602082015250565b6000611f1e60268361197b565b9150611f2982611ec2565b604082019050919050565b60006020820190508181036000830152611f4d81611f11565b9050919050565b7f42657420616c726561647920636c6f7365640000000000000000000000000000600082015250565b6000611f8a60128361197b565b9150611f9582611f54565b602082019050919050565b60006020820190508181036000830152611fb981611f7d565b9050919050565b7f4e487b7100000000000000000000000000000000000000000000000000000000600052601160045260246000fd5b6000611ffa826116be565b9150612005836116be565b9250817f7fffffffffffffffffffffffffffffffffffffffffffffffffffffffffffffff038313600083121516156120405761203f611fc0565b5b817f800000000000000000000000000000000000000000000000000000000000000003831260008312161561207857612077611fc0565b5b828201905092915050565b600061208e826117ad565b9150612099836117ad565b9250817fffffffffffffffffffffffffffffffffffffffffffffffffffffffffffffffff04831182151516156120d2576120d1611fc0565b5b828202905092915050565b7f4f776e61626c653a2063616c6c6572206973206e6f7420746865206f776e6572600082015250565b600061211360208361197b565b915061211e826120dd565b602082019050919050565b6000602082019050818103600083015261214281612106565b905091905056fea264697066735822122060c9d5092b715b2dbb0f2ddf543946e207d16d322ac7b0e138a552a264513a9864736f6c63430008090033",
  "linkReferences": {},
  "deployedLinkReferences": {}
}