{
  "_format": "hh-sol-artifact-1",
  "contractName": "TemplateUtils",
  "sourceName": "@api3/airnode-protocol/contracts/rrp/TemplateUtils.sol",
  "abi": [
    {
      "anonymous": false,
      "inputs": [
        {
          "indexed": true,
          "internalType": "bytes32",
          "name": "templateId",
          "type": "bytes32"
        },
        {
          "indexed": false,
          "internalType": "address",
          "name": "airnode",
          "type": "address"
        },
        {
          "indexed": false,
          "internalType": "bytes32",
          "name": "endpointId",
          "type": "bytes32"
        },
        {
          "indexed": false,
          "internalType": "bytes",
          "name": "parameters",
          "type": "bytes"
        }
      ],
      "name": "CreatedTemplate",
      "type": "event"
    },
    {
      "inputs": [
        {
          "internalType": "address",
          "name": "airnode",
          "type": "address"
        },
        {
          "internalType": "bytes32",
          "name": "endpointId",
          "type": "bytes32"
        },
        {
          "internalType": "bytes",
          "name": "parameters",
          "type": "bytes"
        }
      ],
      "name": "createTemplate",
      "outputs": [
        {
          "internalType": "bytes32",
          "name": "templateId",
          "type": "bytes32"
        }
      ],
      "stateMutability": "nonpayable",
      "type": "function"
    },
    {
      "inputs": [
        {
          "internalType": "bytes32[]",
          "name": "templateIds",
          "type": "bytes32[]"
        }
      ],
      "name": "getTemplates",
      "outputs": [
        {
          "internalType": "address[]",
          "name": "airnodes",
          "type": "address[]"
        },
        {
          "internalType": "bytes32[]",
          "name": "endpointIds",
          "type": "bytes32[]"
        },
        {
          "internalType": "bytes[]",
          "name": "parameters",
          "type": "bytes[]"
        }
      ],
      "stateMutability": "view",
      "type": "function"
    },
    {
      "inputs": [
        {
          "internalType": "bytes32",
          "name": "",
          "type": "bytes32"
        }
      ],
      "name": "templates",
      "outputs": [
        {
          "internalType": "address",
          "name": "airnode",
          "type": "address"
        },
        {
          "internalType": "bytes32",
          "name": "endpointId",
          "type": "bytes32"
        },
        {
          "internalType": "bytes",
          "name": "parameters",
          "type": "bytes"
        }
      ],
      "stateMutability": "view",
      "type": "function"
    }
  ],
  "bytecode": "0x608060405234801561001057600080fd5b5061102a806100206000396000f3fe608060405234801561001057600080fd5b50600436106100415760003560e01c80630a6315761461004657806332393f2b1461007857806376428c9b146100a8575b600080fd5b610060600480360381019061005b91906106fb565b6100da565b60405161006f93929190610811565b60405180910390f35b610092600480360381019061008d91906108e0565b6101ac565b60405161009f9190610954565b60405180910390f35b6100c260048036038101906100bd91906109c5565b61038a565b6040516100d193929190610c9a565b60405180910390f35b60006020528060005260406000206000915090508060000160009054906101000a900473ffffffffffffffffffffffffffffffffffffffff169080600101549080600201805461012990610d15565b80601f016020809104026020016040519081016040528092919081815260200182805461015590610d15565b80156101a25780601f10610177576101008083540402835291602001916101a2565b820191906000526020600020905b81548152906001019060200180831161018557829003601f168201915b5050505050905083565b60008073ffffffffffffffffffffffffffffffffffffffff168573ffffffffffffffffffffffffffffffffffffffff16141561021d576040517f08c379a000000000000000000000000000000000000000000000000000000000815260040161021490610da4565b60405180910390fd5b848484846040516020016102349493929190610e6c565b60405160208183030381529060405280519060200120905060405180606001604052808673ffffffffffffffffffffffffffffffffffffffff16815260200185815260200184848080601f016020809104026020016040519081016040528093929190818152602001838380828437600081840152601f19601f8201169050808301925050505050505081525060008083815260200190815260200160002060008201518160000160006101000a81548173ffffffffffffffffffffffffffffffffffffffff021916908373ffffffffffffffffffffffffffffffffffffffff160217905550602082015181600101556040820151816002019080519060200190610340929190610618565b50905050807fba204bad31c4ec4b9b54164af94ae10c4e7312f22c0f9c065d6319c928ec9e7a8686868660405161037a9493929190610ed4565b60405180910390a2949350505050565b60608060608484905067ffffffffffffffff8111156103ac576103ab610f14565b5b6040519080825280602002602001820160405280156103da5781602001602082028036833780820191505090505b5092508484905067ffffffffffffffff8111156103fa576103f9610f14565b5b6040519080825280602002602001820160405280156104285781602001602082028036833780820191505090505b5091508484905067ffffffffffffffff81111561044857610447610f14565b5b60405190808252806020026020018201604052801561047b57816020015b60608152602001906001900390816104665790505b50905060005b858590508110156106105760008060008888858181106104a4576104a3610f43565b5b90506020020135815260200190815260200160002090508060000160009054906101000a900473ffffffffffffffffffffffffffffffffffffffff168583815181106104f3576104f2610f43565b5b602002602001019073ffffffffffffffffffffffffffffffffffffffff16908173ffffffffffffffffffffffffffffffffffffffff1681525050806001015484838151811061054557610544610f43565b5b60200260200101818152505080600201805461056090610d15565b80601f016020809104026020016040519081016040528092919081815260200182805461058c90610d15565b80156105d95780601f106105ae576101008083540402835291602001916105d9565b820191906000526020600020905b8154815290600101906020018083116105bc57829003601f168201915b50505050508383815181106105f1576105f0610f43565b5b602002602001018190525050808061060890610fab565b915050610481565b509250925092565b82805461062490610d15565b90600052602060002090601f016020900481019282610646576000855561068d565b82601f1061065f57805160ff191683800117855561068d565b8280016001018555821561068d579182015b8281111561068c578251825591602001919060010190610671565b5b50905061069a919061069e565b5090565b5b808211156106b757600081600090555060010161069f565b5090565b600080fd5b600080fd5b6000819050919050565b6106d8816106c5565b81146106e357600080fd5b50565b6000813590506106f5816106cf565b92915050565b600060208284031215610711576107106106bb565b5b600061071f848285016106e6565b91505092915050565b600073ffffffffffffffffffffffffffffffffffffffff82169050919050565b600061075382610728565b9050919050565b61076381610748565b82525050565b610772816106c5565b82525050565b600081519050919050565b600082825260208201905092915050565b60005b838110156107b2578082015181840152602081019050610797565b838111156107c1576000848401525b50505050565b6000601f19601f8301169050919050565b60006107e382610778565b6107ed8185610783565b93506107fd818560208601610794565b610806816107c7565b840191505092915050565b6000606082019050610826600083018661075a565b6108336020830185610769565b818103604083015261084581846107d8565b9050949350505050565b61085881610748565b811461086357600080fd5b50565b6000813590506108758161084f565b92915050565b600080fd5b600080fd5b600080fd5b60008083601f8401126108a05761089f61087b565b5b8235905067ffffffffffffffff8111156108bd576108bc610880565b5b6020830191508360018202830111156108d9576108d8610885565b5b9250929050565b600080600080606085870312156108fa576108f96106bb565b5b600061090887828801610866565b9450506020610919878288016106e6565b935050604085013567ffffffffffffffff81111561093a576109396106c0565b5b6109468782880161088a565b925092505092959194509250565b60006020820190506109696000830184610769565b92915050565b60008083601f8401126109855761098461087b565b5b8235905067ffffffffffffffff8111156109a2576109a1610880565b5b6020830191508360208202830111156109be576109bd610885565b5b9250929050565b600080602083850312156109dc576109db6106bb565b5b600083013567ffffffffffffffff8111156109fa576109f96106c0565b5b610a068582860161096f565b92509250509250929050565b600081519050919050565b600082825260208201905092915050565b6000819050602082019050919050565b610a4781610748565b82525050565b6000610a598383610a3e565b60208301905092915050565b6000602082019050919050565b6000610a7d82610a12565b610a878185610a1d565b9350610a9283610a2e565b8060005b83811015610ac3578151610aaa8882610a4d565b9750610ab583610a65565b925050600181019050610a96565b5085935050505092915050565b600081519050919050565b600082825260208201905092915050565b6000819050602082019050919050565b610b05816106c5565b82525050565b6000610b178383610afc565b60208301905092915050565b6000602082019050919050565b6000610b3b82610ad0565b610b458185610adb565b9350610b5083610aec565b8060005b83811015610b81578151610b688882610b0b565b9750610b7383610b23565b925050600181019050610b54565b5085935050505092915050565b600081519050919050565b600082825260208201905092915050565b6000819050602082019050919050565b600082825260208201905092915050565b6000610bd682610778565b610be08185610bba565b9350610bf0818560208601610794565b610bf9816107c7565b840191505092915050565b6000610c108383610bcb565b905092915050565b6000602082019050919050565b6000610c3082610b8e565b610c3a8185610b99565b935083602082028501610c4c85610baa565b8060005b85811015610c885784840389528151610c698582610c04565b9450610c7483610c18565b925060208a01995050600181019050610c50565b50829750879550505050505092915050565b60006060820190508181036000830152610cb48186610a72565b90508181036020830152610cc88185610b30565b90508181036040830152610cdc8184610c25565b9050949350505050565b7f4e487b7100000000000000000000000000000000000000000000000000000000600052602260045260246000fd5b60006002820490506001821680610d2d57607f821691505b60208210811415610d4157610d40610ce6565b5b50919050565b600082825260208201905092915050565b7f4169726e6f64652061646472657373207a65726f000000000000000000000000600082015250565b6000610d8e601483610d47565b9150610d9982610d58565b602082019050919050565b60006020820190508181036000830152610dbd81610d81565b9050919050565b60008160601b9050919050565b6000610ddc82610dc4565b9050919050565b6000610dee82610dd1565b9050919050565b610e06610e0182610748565b610de3565b82525050565b6000819050919050565b610e27610e22826106c5565b610e0c565b82525050565b600081905092915050565b82818337600083830152505050565b6000610e538385610e2d565b9350610e60838584610e38565b82840190509392505050565b6000610e788287610df5565b601482019150610e888286610e16565b602082019150610e99828486610e47565b915081905095945050505050565b6000610eb38385610783565b9350610ec0838584610e38565b610ec9836107c7565b840190509392505050565b6000606082019050610ee9600083018761075a565b610ef66020830186610769565b8181036040830152610f09818486610ea7565b905095945050505050565b7f4e487b7100000000000000000000000000000000000000000000000000000000600052604160045260246000fd5b7f4e487b7100000000000000000000000000000000000000000000000000000000600052603260045260246000fd5b7f4e487b7100000000000000000000000000000000000000000000000000000000600052601160045260246000fd5b6000819050919050565b6000610fb682610fa1565b91507fffffffffffffffffffffffffffffffffffffffffffffffffffffffffffffffff821415610fe957610fe8610f72565b5b60018201905091905056fea2646970667358221220956d557f38fd7e3e5d6de79a3585ce36d33f65c5ee3044f25136879d5896fdfe64736f6c63430008090033",
  "linkReferences": {},
  "deployedLinkReferences": {}
}